:0400000007EF00F016
:0A0008002D829BED06F0F8EF06F0E4
:100800000020202020202020202020002052453CB5
:100810002D202D3E4F4B00494E465553494F4E001B
:0B08200030303A303000454E440000FC
:10082C0081A01BEF04F01DEF04F091EF04F073EFC7
:10083C0004F0142A350E146426EF04F028EF04F0AB
:10084C002AEF04F0300E146E14506AEC07F0010E0F
:10085C00186E255012EC06F091EF04F0152A390EA3
:10086C0015643BEF04F03DEF04F03FEF04F0300E65
:10087C00156E15506AEC07F0010E186E255012EC2F
:10088C0006F091EF04F0162A350E166450EF04F0C2
:10089C0052EF04F054EF04F0300E166E16506AEC62
:1008AC0007F0010E186E255012EC06F091EF04F0D3
:1008BC00172A390E176465EF04F067EF04F069EF3F
:1008CC0004F0300E176E17506AEC07F0010E186E1C
:1008DC00255012EC06F091EF04F025C023F026C051
:1008EC0024F02450000AD8B47EEF04F091EF04F009
:1008FC002350000AD8B41FEF04F0010AD8B434EF27
:10090C0004F0020AD8B449EF04F0070AD8B45EEF39
:10091C0004F091EF04F081A296EF04F098EF04F04C
:10092C00D4EF04F02506D8A02606020E25182610B2
:10093C00D8A4A3EF04F0A5EF04F0A9EF04F0000E87
:10094C00266E010E256E26BEB0EF04F0AEEF04F05D
:10095C00B4EF04F0000E266E040E256E040E25185E
:10096C002610D8A4BCEF04F0BEEF04F0CFEF04F0D7
:10097C00010E186E252812EC06F0000E1A6E0A0EE7
:10098C00196E050E1B6E000E1D6E000E1C6ED1EC4A
:10099C0005F0010E186E255012EC06F081A4D9EF6B
:1009AC0004F0DBEF04F01BEF05F0254A262A020EBB
:1009BC0025182610D8A4E5EF04F0E7EF04F0EBEFD0
:1009CC0004F0000E266E030E256E050E251826105B
:1009DC00D8A4F3EF04F0F5EF04F006EF05F0010EE8
:1009EC00186E255012EC06F0000E1A6E0A0E196ED7
:1009FC000C0E1B6E000E1D6E000E1C6ED1EC05F065
:100A0C0026BE12EF05F0265009E1060E255CD8A093
:100A1C0012EF05F014EF05F016EF05F0000E136E53
:100A2C00010E186E255012EC06F012004EEC07F079
:100A3C00000E186E000E12EC06F0000E1A6E080E68
:100A4C00196E170E1B6E000E1D6E0A0E1C6ED1EC6D
:100A5C0005F0010E186E000E12EC06F0000E1A6E68
:100A6C00050E196E200E1B6E000E1D6E0A0E1C6EEE
:100A7C00D1EC05F0010E186E000E12EC06F02AEC0B
:100A8C0007F0000E1A6E0A0E196E010E1B6E000E88
:100A9C001D6E000E1C6ED1EC05F00C0E15EC07F063
:100AAC00000E1E6EFA0E1D6E43EC06F07AEC05F08D
:100ABC002904D8A464EF05F066EF05F056EF05F0B5
:100ACC00010E186E080E12EC06F0000E1A6E030ED4
:100ADC00196E260E1B6E000E1D6E000E1C6ED1ECD8
:100AEC0005F077EF05F01200050E1D6E0F0E1C6E53
:100AFC00F10EE82EFED71C2EFCD71D2EFAD70000C7
:100B0C001706300E17608DEF05F08FEF05F0B2EF82
:100B1C0005F01606300E166096EF05F098EF05F00E
:100B2C00B0EF05F01506300E15609FEF05F0A1EF44
:100B3C0005F0AEEF05F01406300E1460A8EF05F0CA
:100B4C00AAEF05F0ACEF05F0010E296E390E156E0B
:100B5C00350E166E390E176E2904D8B4B8EF05F0A1
:100B6C00BAEF05F0D0EF05F0010E186E000E12EC86
:100B7C0006F014506AEC07F015506AEC07F0010E01
:100B8C00186E030E12EC06F016506AEC07F01750B4
:100B9C006AEC07F01200000E226E000E216E02EFBE
:100BAC0006F01B5021241E6E1EC0F6FF080EF76EB9
:100BBC000800F5506AEC07F0000E206E000E1F6E58
:100BCC00F1EF05F0030E1E6E980EE82EFED71E2ECA
:100BDC00FCD71F4A202A1C501F5C2050800A1E6E16
:100BEC001D50800A1E58D8A0FEEF05F000EF06F04D
:100BFC00E8EF05F0214A222A1950215C2250800A84
:100C0C001E6E1A50800A1E58D8A00FEF06F011EF76
:100C1C0006F0D7EF05F012001B6E020E186019EFEC
:100C2C0006F01BEF06F035EF06F0280E1B6021EFE7
:100C3C0006F023EF06F035EF06F01850D8A429EF94
:100C4C0006F02BEF06F02FEF06F01BC01AF032EF78
:100C5C0006F01B50400F1A6E1A5080091A6E8D90B8
:100C6C001AC083FF8D82060E196E300EE82EFED749
:100C7C00192EFCD700D08D921200000E186E0F0E9C
:100C8C0012EC06F0000E6AEC07F01DC018F01EC046
:100C9C0019F0BBEC06F0000E186E0F0E12EC06F0FD
:100CAC00200E6AEC07F0010E186E0F0E12EC06F017
:100CBC00010E6AEC07F01DC018F01EC019F0BBEC59
:100CCC0006F0010E186E0F0E12EC06F0200E6AECF8
:100CDC0007F01200340E1A6EF20EE82EFED71A2E02
:100CEC00FCD7300E15EC07F00D0E1A6EFC0EE82E2C
:100CFC00FED71A2EFCD7300E15EC07F0030E1A6E29
:100D0C00980EE82EFED71A2EFCD7300E15EC07F0F5
:100D1C00380E15EC07F00F0E15EC07F0010E15EC64
:100D2C0007F0060E15EC07F012000600F2A4A1EF76
:100D3C0006F0A3EF06F0A5EF06F02B2AF294F2A230
:100D4C00AAEF06F0ACEF06F0AEEF06F02B06F2922F
:100D5C00F0A0B3EF06F0B5EF06F0B7EF06F02B2AD4
:100D6C00F090010E2A6E2D921100000E1C6E000EDA
:100D7C001B6ECAEF06F0030E1A6E980EE82EFED705
:100D8C001A2EFCD71B4A1C2A1B50185C1950800ABF
:100D9C001A6E1C50800A1A58D8B0D7EF06F0D9EF4B
:100DAC0006F0C1EF06F01200000E1C6E000E1B6E5A
:100DBC001B501924D96E1C501A20DA6EDF506AECC5
:100DCC0007F01B4A1C2A1CBEF5EF06F01C5009E16B
:100DDC00080E1B5CD8A0F5EF06F0F7EF06F0DEEF7F
:100DEC0006F01200BC0EF66E0E0EF76E000EF86ECC
:100DFC0000EE01F010EE17F00900F5CFEEFFE55014
:100E0C00E150FAE100EE25F0080EEE6AE806FDE18D
:100E1C002D902D92000EF86E00013DEF07F0196E2B
:100E2C008D9019C083FF8D82030E186E980EE82EDC
:100E3C00FED7182EFCD78D92030E186E980EE82E46
:100E4C00FED7182EFCD7120034EF07F016EC04F086
:100E5C00000E196EC80E186EBBEC06F01304D8B455
:100E6C003AEF07F03CEF07F02CEF07F012007F0E83
:100E7C00D36E000E956E969096920F0E936E70EC4C
:100E8C0006F00E0E15EC07F01CEC05F007EF00F069
:100E9C00400E15EC07F0000E196E000E1A6EDAEC0F
:100EAC0006F0010E196E000E1A6EDAEC06F0120046
:100EBC0004060E1F1F1F0E04040C0E1F1F1F0E0412
:070ECC0064000130303030FA
:100ED400186E8D8018C083FF8D821A0EE82EFED7FF
:060EE40000D08D92120007
:020000040020DA
:08000000FFFFFFFFFFFFFFFF00
:020000040030CA
:0E00000000091F1EFF8181FF0FC00FE00F409F
:00000001FF
